{
  "_format": "hh-sol-artifact-1",
  "contractName": "FlashLoanOracleStrategy",
  "sourceName": "contracts/FlashLoanOracleStrategy.sol",
  "abi": [
    {
      "inputs": [
        {
          "internalType": "address",
          "name": "pool_",
          "type": "address"
        },
        {
          "internalType": "address",
          "name": "priceFeed_",
          "type": "address"
        }
      ],
      "stateMutability": "nonpayable",
      "type": "constructor"
    },
    {
      "inputs": [],
      "name": "BadInitiator",
      "type": "error"
    },
    {
      "inputs": [],
      "name": "EthTransferFailed",
      "type": "error"
    },
    {
      "inputs": [],
      "name": "InvalidOraclePrice",
      "type": "error"
    },
    {
      "inputs": [],
      "name": "NotOwner",
      "type": "error"
    },
    {
      "inputs": [],
      "name": "NotPool",
      "type": "error"
    },
    {
      "inputs": [],
      "name": "SwapFailed",
      "type": "error"
    },
    {
      "anonymous": false,
      "inputs": [
        {
          "indexed": true,
          "internalType": "address",
          "name": "to",
          "type": "address"
        },
        {
          "indexed": false,
          "internalType": "uint256",
          "name": "amount",
          "type": "uint256"
        }
      ],
      "name": "EtherSent",
      "type": "event"
    },
    {
      "anonymous": false,
      "inputs": [
        {
          "indexed": true,
          "internalType": "address",
          "name": "asset",
          "type": "address"
        },
        {
          "indexed": false,
          "internalType": "uint256",
          "name": "amount",
          "type": "uint256"
        },
        {
          "indexed": false,
          "internalType": "uint256",
          "name": "premium",
          "type": "uint256"
        },
        {
          "indexed": false,
          "internalType": "int256",
          "name": "oraclePrice",
          "type": "int256"
        },
        {
          "indexed": false,
          "internalType": "uint256",
          "name": "finalBalance",
          "type": "uint256"
        }
      ],
      "name": "FlashLoanExecuted",
      "type": "event"
    },
    {
      "anonymous": false,
      "inputs": [
        {
          "indexed": true,
          "internalType": "address",
          "name": "asset",
          "type": "address"
        },
        {
          "indexed": false,
          "internalType": "uint256",
          "name": "amount",
          "type": "uint256"
        }
      ],
      "name": "FlashLoanRequested",
      "type": "event"
    },
    {
      "anonymous": false,
      "inputs": [
        {
          "indexed": false,
          "internalType": "int256",
          "name": "price",
          "type": "int256"
        },
        {
          "indexed": false,
          "internalType": "uint8",
          "name": "decimals",
          "type": "uint8"
        },
        {
          "indexed": false,
          "internalType": "uint256",
          "name": "updatedAt",
          "type": "uint256"
        }
      ],
      "name": "OraclePriceRead",
      "type": "event"
    },
    {
      "anonymous": false,
      "inputs": [
        {
          "indexed": true,
          "internalType": "address",
          "name": "token",
          "type": "address"
        },
        {
          "indexed": true,
          "internalType": "address",
          "name": "to",
          "type": "address"
        },
        {
          "indexed": false,
          "internalType": "uint256",
          "name": "amount",
          "type": "uint256"
        }
      ],
      "name": "TokenWithdrawn",
      "type": "event"
    },
    {
      "inputs": [],
      "name": "aavePool",
      "outputs": [
        {
          "internalType": "contract IPool",
          "name": "",
          "type": "address"
        }
      ],
      "stateMutability": "view",
      "type": "function"
    },
    {
      "inputs": [
        {
          "internalType": "address",
          "name": "asset",
          "type": "address"
        },
        {
          "internalType": "uint256",
          "name": "amount",
          "type": "uint256"
        },
        {
          "internalType": "uint256",
          "name": "premium",
          "type": "uint256"
        },
        {
          "internalType": "address",
          "name": "initiator",
          "type": "address"
        },
        {
          "internalType": "bytes",
          "name": "params",
          "type": "bytes"
        }
      ],
      "name": "executeOperation",
      "outputs": [
        {
          "internalType": "bool",
          "name": "",
          "type": "bool"
        }
      ],
      "stateMutability": "nonpayable",
      "type": "function"
    },
    {
      "inputs": [],
      "name": "getLatestPrice",
      "outputs": [
        {
          "internalType": "int256",
          "name": "price",
          "type": "int256"
        },
        {
          "internalType": "uint8",
          "name": "decimals",
          "type": "uint8"
        },
        {
          "internalType": "uint256",
          "name": "updatedAt",
          "type": "uint256"
        }
      ],
      "stateMutability": "nonpayable",
      "type": "function"
    },
    {
      "inputs": [],
      "name": "owner",
      "outputs": [
        {
          "internalType": "address",
          "name": "",
          "type": "address"
        }
      ],
      "stateMutability": "view",
      "type": "function"
    },
    {
      "inputs": [],
      "name": "priceFeed",
      "outputs": [
        {
          "internalType": "contract AggregatorV3Interface",
          "name": "",
          "type": "address"
        }
      ],
      "stateMutability": "view",
      "type": "function"
    },
    {
      "inputs": [
        {
          "internalType": "address",
          "name": "asset",
          "type": "address"
        },
        {
          "internalType": "uint256",
          "name": "amount",
          "type": "uint256"
        },
        {
          "components": [
            {
              "internalType": "address",
              "name": "swapTarget",
              "type": "address"
            },
            {
              "internalType": "bytes",
              "name": "swapCalldata",
              "type": "bytes"
            },
            {
              "internalType": "uint256",
              "name": "minBalanceAfterSwap",
              "type": "uint256"
            }
          ],
          "internalType": "struct FlashLoanOracleStrategy.StrategyParams",
          "name": "params",
          "type": "tuple"
        }
      ],
      "name": "requestFlashLoan",
      "outputs": [],
      "stateMutability": "nonpayable",
      "type": "function"
    },
    {
      "inputs": [
        {
          "internalType": "address payable",
          "name": "to",
          "type": "address"
        },
        {
          "internalType": "uint256",
          "name": "amount",
          "type": "uint256"
        }
      ],
      "name": "sendEther",
      "outputs": [],
      "stateMutability": "nonpayable",
      "type": "function"
    },
    {
      "inputs": [
        {
          "internalType": "address",
          "name": "token",
          "type": "address"
        },
        {
          "internalType": "address",
          "name": "to",
          "type": "address"
        },
        {
          "internalType": "uint256",
          "name": "amount",
          "type": "uint256"
        }
      ],
      "name": "withdrawToken",
      "outputs": [],
      "stateMutability": "nonpayable",
      "type": "function"
    },
    {
      "stateMutability": "payable",
      "type": "receive"
    }
  ],
  "bytecode": "0x60e060405234801561001057600080fd5b50604051610ff7380380610ff783398101604081905261002f91610066565b336080526001600160a01b0391821660a0521660c052610099565b80516001600160a01b038116811461006157600080fd5b919050565b6000806040838503121561007957600080fd5b6100828361004a565b91506100906020840161004a565b90509250929050565b60805160a05160c051610ef7610100600039600081816101140152818161073201526107de0152600081816101c601528181610324015281816104f8015261068201526000818161016001528181610213015281816105ff01526108b40152610ef76000f3fe60806040526004361061007f5760003560e01c80638da5cb5b1161004e5780638da5cb5b1461014e5780638e15f47314610182578063a03e4bc3146101b4578063c1756a2c146101e857600080fd5b806301e336671461008b5780631b11d0ff146100ad578063732fe57a146100e2578063741bef1a1461010257600080fd5b3661008657005b600080fd5b34801561009757600080fd5b506100ab6100a63660046109c6565b610208565b005b3480156100b957600080fd5b506100cd6100c8366004610a07565b610317565b60405190151581526020015b60405180910390f35b3480156100ee57600080fd5b506100ab6100fd366004610ab1565b6105f4565b34801561010e57600080fd5b506101367f000000000000000000000000000000000000000000000000000000000000000081565b6040516001600160a01b0390911681526020016100d9565b34801561015a57600080fd5b506101367f000000000000000000000000000000000000000000000000000000000000000081565b34801561018e57600080fd5b5061019761072b565b6040805193845260ff9092166020840152908201526060016100d9565b3480156101c057600080fd5b506101367f000000000000000000000000000000000000000000000000000000000000000081565b3480156101f457600080fd5b506100ab610203366004610b11565b6108a9565b336001600160a01b037f00000000000000000000000000000000000000000000000000000000000000001614610251576040516330cd747160e01b815260040160405180910390fd5b60405163a9059cbb60e01b81526001600160a01b0383811660048301526024820183905284169063a9059cbb906044016020604051808303816000875af11580156102a0573d6000803e3d6000fd5b505050506040513d601f19601f820116820180604052508101906102c49190610b3d565b50816001600160a01b0316836001600160a01b03167f8210728e7c071f615b840ee026032693858fbcd5e5359e67e438c890f59e56208360405161030a91815260200190565b60405180910390a3505050565b6000336001600160a01b037f0000000000000000000000000000000000000000000000000000000000000000161461036257604051636f61f64160e01b815260040160405180910390fd5b6001600160a01b038416301461038b57604051630377b97960e11b815260040160405180910390fd5b600061039561072b565b50909150600090506103a984860186610bd6565b80519091506001600160a01b03161561044257805160208201516040516000926001600160a01b0316916103dc91610cd0565b6000604051808303816000865af19150503d8060008114610419576040519150601f19603f3d011682016040523d82523d6000602084013e61041e565b606091505b50509050806104405760405163081ceff360e41b815260040160405180910390fd5b505b6040516370a0823160e01b81523060048201526000906001600160a01b038b16906370a0823190602401602060405180830381865afa158015610489573d6000803e3d6000fd5b505050506040513d601f19601f820116820180604052508101906104ad9190610cec565b905081604001518110806104c957506104c6888a610d05565b81105b156104e75760405163081ceff360e41b815260040160405180910390fd5b6001600160a01b038a1663095ea7b37f00000000000000000000000000000000000000000000000000000000000000006105218b8d610d05565b6040516001600160e01b031960e085901b1681526001600160a01b03909216600483015260248201526044016020604051808303816000875af115801561056c573d6000803e3d6000fd5b505050506040513d601f19601f820116820180604052508101906105909190610b3d565b50604080518a8152602081018a9052908101849052606081018290526001600160a01b038b16907f109ee90f0aaa319da2843ddae48b44bfd60f3fde4e9eafe47c475e3c1e3fb0f09060800160405180910390a25060019998505050505050505050565b336001600160a01b037f0000000000000000000000000000000000000000000000000000000000000000161461063d576040516330cd747160e01b815260040160405180910390fd5b826001600160a01b03167f36b2acb66143c7d81ece04083e3157526cab9360d579ecd6ed68c9e7481123f18360405161067891815260200190565b60405180910390a27f00000000000000000000000000000000000000000000000000000000000000006001600160a01b03166342b0b77c308585856040516020016106c39190610d2c565b60405160208183030381529060405260006040518663ffffffff1660e01b81526004016106f4959493929190610dcf565b600060405180830381600087803b15801561070e57600080fd5b505af1158015610722573d6000803e3d6000fd5b50505050505050565b60008060007f00000000000000000000000000000000000000000000000000000000000000006001600160a01b031663feaf968c6040518163ffffffff1660e01b815260040160a060405180830381865afa15801561078e573d6000803e3d6000fd5b505050506040513d601f19601f820116820180604052508101906107b29190610e4e565b50919550909250506000841390506107dc5760405162fc7cad60e51b815260040160405180910390fd5b7f00000000000000000000000000000000000000000000000000000000000000006001600160a01b031663313ce5676040518163ffffffff1660e01b8152600401602060405180830381865afa15801561083a573d6000803e3d6000fd5b505050506040513d601f19601f8201168201806040525081019061085e9190610e9e565b6040805185815260ff831660208201529081018390529092507f5cf343e7873e0bf2f77388f5c8a2ff2563c3f97f669ccfc40481caee93d264fb9060600160405180910390a1909192565b336001600160a01b037f000000000000000000000000000000000000000000000000000000000000000016146108f2576040516330cd747160e01b815260040160405180910390fd5b6000826001600160a01b03168260405160006040518083038185875af1925050503d806000811461093f576040519150601f19603f3d011682016040523d82523d6000602084013e610944565b606091505b505090508061096657604051630db2c7f160e31b815260040160405180910390fd5b826001600160a01b03167f6109e2559dfa766aaec7118351d48a523f0a4157f49c8d68749c8ac41318ad12836040516109a191815260200190565b60405180910390a2505050565b6001600160a01b03811681146109c357600080fd5b50565b6000806000606084860312156109db57600080fd5b83356109e6816109ae565b925060208401356109f6816109ae565b929592945050506040919091013590565b60008060008060008060a08789031215610a2057600080fd5b8635610a2b816109ae565b955060208701359450604087013593506060870135610a49816109ae565b9250608087013567ffffffffffffffff80821115610a6657600080fd5b818901915089601f830112610a7a57600080fd5b813581811115610a8957600080fd5b8a6020828501011115610a9b57600080fd5b6020830194508093505050509295509295509295565b600080600060608486031215610ac657600080fd5b8335610ad1816109ae565b925060208401359150604084013567ffffffffffffffff811115610af457600080fd5b840160608187031215610b0657600080fd5b809150509250925092565b60008060408385031215610b2457600080fd5b8235610b2f816109ae565b946020939093013593505050565b600060208284031215610b4f57600080fd5b81518015158114610b5f57600080fd5b9392505050565b634e487b7160e01b600052604160045260246000fd5b6040516060810167ffffffffffffffff81118282101715610b9f57610b9f610b66565b60405290565b604051601f8201601f1916810167ffffffffffffffff81118282101715610bce57610bce610b66565b604052919050565b60006020808385031215610be957600080fd5b823567ffffffffffffffff80821115610c0157600080fd5b9084019060608287031215610c1557600080fd5b610c1d610b7c565b8235610c28816109ae565b81528284013582811115610c3b57600080fd5b8301601f81018813610c4c57600080fd5b803583811115610c5e57610c5e610b66565b610c70601f8201601f19168701610ba5565b93508084528886828401011115610c8657600080fd5b808683018786013760009084018601525092830152604090810135908201529392505050565b60005b83811015610cc7578181015183820152602001610caf565b50506000910152565b60008251610ce2818460208701610cac565b9190910192915050565b600060208284031215610cfe57600080fd5b5051919050565b80820180821115610d2657634e487b7160e01b600052601160045260246000fd5b92915050565b6020815260008235610d3d816109ae565b6001600160a01b031660208381019190915283013536849003601e19018112610d6557600080fd5b830160208101903567ffffffffffffffff811115610d8257600080fd5b803603821315610d9157600080fd5b60606040850152806080850152808260a0860137600060a082860101526040850135606085015260a0601f19601f8301168501019250505092915050565b600060018060a01b03808816835280871660208401525084604083015260a0606083015283518060a0840152610e0c8160c0850160208801610cac565b61ffff93909316608083015250601f91909101601f19160160c001949350505050565b805169ffffffffffffffffffff81168114610e4957600080fd5b919050565b600080600080600060a08688031215610e6657600080fd5b610e6f86610e2f565b9450602086015193506040860151925060608601519150610e9260808701610e2f565b90509295509295909350565b600060208284031215610eb057600080fd5b815160ff81168114610b5f57600080fdfea264697066735822122086303fcfa12fde5eb712ac356c3fe9daa00ed9a64afe97a6ee2272ef298aa8d464736f6c63430008180033",
  "linkReferences": {},
  "deployedLinkReferences": {}
}